:020000040800F2
:10000000801E0020050200088D070008590700081F
:100010007507000815050008F10D00080000000034
:10002000000000000000000000000000B30A00080B
:100030002D050008000000001B0200081D0200083A
:100040001F0200081F0200081F0200081F0200080C
:100050001F0200081F0200081F0200081F020008FC
:100060001F0200081F0200081F0200081F020008EC
:100070001F0200081F0200081F0200081F020008DC
:100080001F0200081F0200081F0200081F020008CC
:100090001F0200081F0200081F0200081F020008BC
:1000A0001F0200081F0200081F0200081F020008AC
:1000B0001F0200081F0200081F0200081F0200089C
:1000C0001F0200081F0200081F0200081F0200088C
:1000D0001F0200081F0200081F0200081F0200087C
:1000E0001F0200081F0200081F0200080000000095
:1000F0000000000000000000000000000000000000
:1001000000000000000000001F0200081F0200089D
:100110001F0200081F0200081F0200081F0200083B
:100120001F0200081F0200081F0200081F0200082B
:100130001F0200081F0200081F0200081F0200081B
:100140001F0200081F0200081F0200081F0200080B
:1001500000F002F800F042F80AA090E8000C824497
:100160008344AAF10107DA4501D100F037F8AFF274
:10017000090EBAE80F0013F0010F18BFFB1A43F085
:1001800001031847E80E0000080F0000103A24BFD2
:1001900078C878C1FAD8520724BF30C830C144BFEC
:1001A00004680C607047000000230024002500262E
:1001B000103A28BF78C1FBD8520728BF30C148BFCA
:1001C0000B607047642900F07F80782900F0B880C8
:1001D000002070471FB51FBD10B510BD00F068F9B5
:1001E0001146FFF7F7FF00F0C5FE00F086F903B4F3
:1001F000FFF7F2FF03BC00F009FE000080F308885F
:10020000704700000948804709480047FEE7FEE7BD
:10021000FEE7FEE7FEE7FEE7FEE7FEE7FEE7FEE7B6
:1002200004480549054A064B70470000D50B0008F5
:100230005101000880180020801E0020801A002034
:10024000801A0020704700000FB4044910B503AABB
:10025000029800F0FFF810BC5DF814FB04000020C9
:100260002DE9F0410E460446002020622046E16858
:10027000884730B3252805D0D4E901219047206A6A
:10028000401CF2E7E168204600278847050018D0A7
:10029000A5F14100192802D820354FF400673246F5
:1002A000294620462760FFF78DFF40B1012804D082
:1002B000F61D26F007060836D8E7361DD6E728468D
:1002C000DAE7206ABDE8F0812DE9F0410646002416
:1002D00010687529314616A510D0AFF300800028AC
:1002E00002DA404213A507E031688A0701D512A55A
:1002F00002E0490704D511A5012401E0AFF3008015
:1003000000210A2206F1240709E0B0FBF2FCB0FB51
:10031000F2F302FB1C00303078541846491C0028C8
:10032000F3D123462A463046BDE8F04100F038B804
:10033000000000002D0000002B0000002000000045
:1003400070B504460D4621461068AFF30080218841
:10035000090502D50F4A7A4402E00E4A7A440E3269
:10036000002104F1240305E000F00F060009965D6A
:100370005E54491C0028F7D120780023000704D5DB
:10038000702D02D009B1022311322046BDE8704021
:1003900000F006B8EA0C00007047704770477047DD
:1003A0002DE9F0470D4699469246044600F124088F
:1003B0000168880604D5E06921F01001216000E0A1
:1003C0000120A84201DD471B00E00027A1697A193E
:1003D00002EB0900081AA0612078C00602D420466A
:1003E000AFF30080002608E0D4E901211AF80600E6
:1003F0009047206A401C761C20624E45F4DB207832
:10040000C0060AD52046AFF3008006E0D4E90121FA
:1004100030209047206A401C2062381EA7F1010757
:10042000F4DC07E0D4E9012118F805009047206AC0
:10043000401C2062281EA5F10105F3DC2046AFF325
:1004400000802078000602D50220BDE8F087012058
:10045000FBE70000074B70B50D467B4400F011F838
:100460000446284600F020F810B14FF0FF3070BD70
:10047000204670BDB709000001694A1C0261087876
:10048000704700B58FB0CDE90131002105910549D4
:100490007944CDE9031011466846FFF7E1FE0FB03D
:1004A00000BD0000E5FFFFFF007B00F0800070470B
:1004B000754600F02BF8AE4605006946534620F01D
:1004C0000700854618B020B5FFF7AAFEBDE820401A
:1004D0004FF000064FF000074FF000084FF0000B00
:1004E00021F00701AC46ACE8C009ACE8C009ACE8B3
:1004F000C009ACE8C0098D46704710B50446AFF39B
:1005000000802046BDE81040FFF771BE00487047EC
:100510001C18002002A0FFF797FE00BFFEE70000B6
:10052000627573206661756C740D0A007047000077
:1005300030B5044604254FF4302000F06FF805462E
:10054000042D17D10C48006940F002000A490861E7
:1005500008464461006940F0400008614FF43020D3
:1005600000F05CF805460448006941F6FD7108405A
:1005700001490861284630BD0020024004200B4993
:10058000C96801F0010109B101200EE00749C968FD
:1005900001F0040109B1022007E00449C96801F033
:1005A000100109B1032000E0042070470020024040
:1005B0000348006940F0800001490861704700006D
:1005C0000020024070B504460D460426F00200F0FB
:1005D00025F80646042E11D10948006940F00100B3
:1005E000074908612580F00200F018F80646044823
:1005F000006941F6FE71084001490861304670BD4E
:1006000000200240024803494860034848607047A0
:100610002301674500200240AB89EFCD00B50246BB
:100620000423FFF7ABFF034603E0FFF7A7FF0346F2
:10063000521E012B01D1002AF7D102B90523184619
:1006400000BD2DE9F04102460025002600200023D0
:100650000024002791F803C00CF00F0591F803C0A7
:100660000CF0100CBCF1000F03D091F802C04CEA62
:10067000050591F800C0BCF1000F31D014680020CE
:100680002BE04FF0010C0CFA00F3B1F800C00CEABB
:1006900003069E4220D183004FF00F0C0CFA03F7A3
:1006A000BC4305FA03FC4CEA040491F803C0BCF116
:1006B000280F06D14FF0010C0CFA00FCC2F814C050
:1006C0000AE091F803C0BCF1480F05D14FF0010CCE
:1006D0000CFA00FCC2F810C0401C0828D1D31460EA
:1006E000B1F800C0BCF1FF0F34DD546800202EE0EB
:1006F00000F1080C4FF0010808FA0CF3B1F800C043
:100700000CEA03069E4221D183004FF00F0C0CFA35
:1007100003F7BC4305FA03FC4CEA040491F803C058
:10072000BCF1280F05D100F1080C08FA0CF8C2F84A
:10073000148091F803C0BCF1480F07D100F1080CF8
:100740004FF0010808FA0CF8C2F81080401C082885
:10075000CED35460BDE8F08102A0FFF775FD00BF65
:10076000FEE7000068617264206661756C740D0AB2
:100770000000000002A0FFF767FD00BFFEE70000D9
:100780006D656D206661756C740D0A007047000020
:1007900029B1064A12690243044B1A6104E0034A74
:1007A00012698243014B1A61704700000010024039
:1007B00029B1064A92690243044B9A6104E0034A54
:1007C00092698243014B9A61704700000010024019
:1007D00029B1064AD2680243044BDA6004E0034AB6
:1007E000D2688243014BDA6070470000001002407B
:1007F0002DE9F041002100220025002300260024DD
:1008000000278C46DFF86081D8F8048008F00C01DE
:1008100021B1042907D0082959D109E0DFF84C811A
:10082000C0F8008058E0DFF84481C0F8008053E051
:10083000DFF83481D8F8048008F47012DFF82881DA
:10084000D8F8048008F48035920C0D2A01D0921C4F
:1008500000E0062235B9DFF8188102FB08F8C0F87D
:10086000008033E0DFF80081D8F82C8008F480366F
:10087000DFF8F480D8F82C8008F00F0808F10104A4
:1008800046B9DFF8E880B8FBF4F808FB02F8C0F8D6
:1008900000801BE0DFF8D080D8F82C80C8F3031864
:1008A00008F10107DFF8C080D8F82C80C8F30328CE
:1008B00008F1020CDFF8B480B8FBF7F808FB0CF87D
:1008C000B8FBF4F808FB02F8C0F8008004E0DFF899
:1008D0009C80C0F8008000BF00BFDFF88C80D8F893
:1008E000048008F0F0010909DFF8888018F8013069
:1008F000D0F8008028FA03F8C0F80480DFF8688098
:10090000D8F8048008F4E061090ADFF8688018F874
:100910000130D0F8048028FA03F8C0F80880DFF826
:100920004880D8F8048008F46051C90ADFF8448090
:1009300018F80130D0F8048028FA03F8C0F80C80C9
:10094000DFF82480D8F8048008F44041890BDFF8F0
:10095000288018F80130D0F80C80B8FBF3F8C0F804
:100960001080BDE8F08100000010024000127A0003
:1009700000093D00080000201800002030B50346A3
:100980000C461546002207E0184600F008F824F847
:1009900012009B1C501C82B2AA42F5DB30BD0146FE
:1009A000088870472DE9F05F80468A461746B8F1FF
:1009B000006F02D33348804501D3BDE8F09FFFF7B5
:1009C00021FEA8F1006B4FEADB25CBF34909C9F5FD
:1009D0008064A74200DC3C464DE04FF0006101EB33
:1009E000C5204A142849FFF7C9FF00260BE009EB90
:1009F0000600254931F810004FF6FF71884200D0FB
:100A000003E0701C86B2A642F1DB00BFA6421BDAEF
:100A10004FF0006101EBC520FFF78AFD002608E0DA
:100A20003AF8160006EB0901174A22F81100701C6B
:100A300086B2A642F4DB4FF0006101EBC5204A14F8
:100A4000114900F023F804E022465146404600F0E8
:100A50001DF8A74200D10FE06D1C4FF000090AEB12
:100A6000440AA044381B87B2B7F5806F02DD4FF40B
:100A7000806400E03C46B0E700BFFFF799FD00BF8F
:100A80009BE70000000004081C1000202DE9F04145
:100A900005460E461746002407E036F8141028468F
:100AA000FFF790FDAD1C601C84B2BC42F5DBBDE8D5
:100AB000F081704710B500F001F810BD0CB50020B2
:100AC000019000903F48006840F480303D49086044
:100AD00000BF3C48006800F4003000900198401CC2
:100AE0000190009818B90198B0F5A06FF1D1354880
:100AF000006800F4003010B10120009001E00020F7
:100B00000090009801285CD12F48006840F0100048
:100B10002D4908600846006820F003000860084678
:100B2000006840F002000860264840682549486097
:100B30000846406848600846406840F48060486065
:100B40000846C06A214908401E49C8620846C06A72
:100B50001F4908431B49C8620846006840F080608E
:100B6000086000BF1748006800F000600028F9D056
:100B70001448406820F47C101249486008464068D8
:100B800040F4E81048600846006840F08070086053
:100B900000BF0C48006800F000700028F9D0094838
:100BA000406820F00300074948600846406840F06C
:100BB0000200486000BF0348406800F00C000828AD
:100BC000F9D10CBD001002400020024000F0FEFFF1
:100BD0001408010010B51648006840F001001449DF
:100BE00008600846406813490840114948600846B3
:100BF0000068114908400E4908600846006820F462
:100C0000802008600846406820F4FE0048600846DE
:100C1000006820F0A05008604FF47F00886000203A
:100C2000C862FFF747FF4FF000600449086010BD3D
:100C3000001002400000FFF0FFFFF6FE08ED00E0AC
:100C400021B1828942F40052828104E082894DF60A
:100C5000FF731A408281704710B5044620488442D1
:100C600009D101218803FFF7B3FD00214FF4804033
:100C7000FFF7AEFD32E01B48844209D10121480450
:100C8000FFF786FD00214FF40030FFF781FD25E0DE
:100C90001548844209D101218804FFF779FD00211C
:100CA0004FF48020FFF774FD18E01048844209D10A
:100CB0000121C804FFF76CFD00214FF40020FFF76D
:100CC00067FD0BE00A48844208D101210805FFF7BF
:100CD0005FFD00214FF48010FFF75AFD10BD0000AA
:100CE000003801400044004000480040004C0040F3
:100CF0000050004002460020B1F5007F00D100BF47
:100D000013880B400BB1012000E000207047000069
:100D10002DE9F04786B005460E460024A24600BFE6
:100D2000A1460027B08900B100BF2F462C8A4CF69F
:100D3000FF700440F08804432C82AC894EF6F31017
:100D40000440B08831890843718908430443AC8169
:100D5000AC8A4FF6FF400440B0890443AC8201A83E
:100D6000FFF746FD1F48874202D1DDF810A001E0E1
:100D7000DDF80CA0A88900F4004040B10AEBCA00DD
:100D800000EB0A1031684900B0FBF1F807E00AEB0C
:100D9000CA0000EB0A1031688900B0FBF1F864204A
:100DA000B8FBF0F004012009642101FB1089A88937
:100DB00000F4004040B1322000EBC900B0FBF1F07C
:100DC00000F00700044308E0322000EB0910642122
:100DD000B0FBF1F000F00F0004432C8106B0BDE839
:100DE000F087000000380140C1F30802828070479C
:100DF00002A0FFF729FA00BFFEE7000075736167E4
:100E000065206661756C740D0A000000014600BF24
:100E10007047000070B504460D4600BF40210548EC
:100E2000FFF768FF0028F9D0E1B20248FFF7DCFFC6
:100E3000204670BD003801402DE9F843264E274F6B
:100E40004FF0FF30009026480568294625A0FFF79F
:100E5000FBF9681C18B926A0FFF7F6F925E02EA0CB
:100E6000FFF7F2F917E0B5F5805F01D2284601E0FF
:100E70004FF4805084B2224631462F4800F08EF85D
:100E8000A04604EBD87042102B493846FFF78AFD84
:100E9000274426442D1B002DE5D102226946104827
:100EA000FFF780FD25A0FFF7CFF90C48416827A088
:100EB000FFF7CAF90948016828A0FFF7C5F90748F4
:100EC00040682B49086005490868FFF797F92848EA
:100ED00000688047BDE8F883006000080030020821
:100EE0000058000866776C656E3A2025640D0A008C
:100EF0007468657265206973206E6F206E65772057
:100F00006669726D776172652C2063616C6C20611B
:100F100070700D0A000000007570646174696E677E
:100F2000206E6577206669726D7761726520746FD7
:100F3000206170700D0A00001C0000207570646153
:100F40007465206F7665720D0A0000006170702074
:100F5000616464723A2025780D0A00006D73702078
:100F6000616464723A2025780D0A0D0A00000000C1
:100F7000000000204FF4E13000F024F803A0FFF758
:100F800063F9FFF759FF00BFFEE700000D0A636138
:100F90006C6C696E67206961700D0A00F0B50346DC
:100FA0000C46164602EBD677C7F34F0503E034F83C
:100FB000026B23F8026B2E1EA5F10107BDB2F6D11C
:100FC000F0BD000010B586B00446012144F20400D3
:100FD000FFF7EEFB1948FFF73FFE4FF40070ADF846
:100FE000140003208DF8160018208DF8170005A9AD
:100FF0001348FFF726FB4FF48060ADF8140004207F
:101000008DF8170005A90E48FFF71BFB019400207F
:10101000ADF80800ADF80A00ADF80C00ADF810000E
:101020000820ADF80E0001A90448FFF771FE012168
:101030000248FFF705FE06B010BD00000038014071
:1010400000080140303132333435363738394142C7
:10105000434445464030580030313233343536371A
:101060003839616263646566403078008C1000082E
:10107000000000201C0000008C010008A8100008DF
:101080001C000020641E0000A801000800000000F1
:10109000000000000000000001020304010203043C
:0810A000060708090204060816
:04000005080001519D
:020000040802F0
:10300000C0EB002049320208A93E0208F53D020843
:10301000913E0208B1390208858D020800000000C7
:10302000000000000000000000000000234402082F
:10303000C9390208000000005F320208613202084C
:103040006332020863320208633202086332020804
:1030500063320208633202086332020863320208F4
:1030600063320208633202086332020863320208E4
:1030700063320208633202086332020863320208D4
:1030800063320208633202086332020863320208C4
:1030900063320208633202086332020863320208B4
:1030A00063320208633202086332020863320208A4
:1030B00063320208C1480208633202086332020820
:1030C0006332020863320208633202086332020884
:1030D0006332020863320208633202086332020874
:1030E0006332020863320208633202080000000003
:1030F00000000000000000000000000000000000D0
:103100000000000000000000633202086332020881
:10311000633202086332020863320208BD490208C2
:103120006332020863320208633202086332020823
:103130006332020863320208633202086332020813
:10314000633202086332020863320208313F020828
:1031500000F002F800F068F80AA090E8000C824441
:103160008344AAF10107DA4501D100F05DF8AFF21E
:10317000090EBAE80F0013F0010F18BFFB1A43F055
:103180000103184790480100B04801000A444FF07D
:10319000000C10F8013B13F0070408BF10F8014BB6
:1031A0001D1108BF10F8015B641E05D010F8016BFB
:1031B000641E01F8016BF9D113F0080F1EBF10F85F
:1031C000014BAD1C0C1B09D16D1E58BF01F801CB82
:1031D000FAD505E014F8016B01F8016B6D1EF9D505
:1031E0009142D6D37047000000230024002500261A
:1031F000103A28BF78C1FBD8520728BF30C148BF5A
:103200000B607047642900F01381752900F010816C
:10321000782900F04981732900F066830020704707
:103220001FB51FBD10B510BD00F090FB1146FFF794
:10323000F7FF0BF0D5F900F0AEFB03B4FFF7F2FF98
:1032400003BC05F0B4FD0000094880470948004769
:10325000FEE7FEE7FEE7FEE7FEE7FEE7FEE7FEE746
:10326000FEE7FEE704480549054A064B70470000A3
:103270006D45020851310208C0E10020C0EB00207A
:10328000C0E30020C0E30020704753EA020C00F0C6
:1032900069802DE9F04B4FF00006002B1FBFB3FAF9
:1032A00083F503FA05F424FA05F65E4012BF1643CF
:1032B000B2FA82F502FA05F4C5F120051EBF22FA22
:1032C00005FC44EA0C04203556EA044C4FEA144449
:1032D00018BF641C4FF000084FF00009904271EBDA
:1032E000030C39D3002919BFB1FA81F701FA07F6A7
:1032F000B0FA80F700FA07F6C7F120071EBF20FAE0
:1033000007FC46EA0C062037B6FBF4FCA7EB0507E2
:10331000103F07F01F0BCBF120060CFA0BFB2CFA29
:1033200006F644BFB3460026202FA4BF5E464FF0EA
:10333000000B5BEA060C08BF4FF0010B19EB0B0901
:10334000ABFB027C48EB0608C01B06FB02CC0BFB68
:1033500003CC71EB0C01C1E70B46024641464846DF
:10336000BDE8F08B13B54FF000004FF00001AFF354
:103370000080BDE81C4070470FB4044910B503AA93
:10338000029800F0B5FA10BC5DF814FBD4000020E0
:1033900070B5044685690068C10601D5302600E095
:1033A0002026C00707D070BDD4E9012130469047E0
:1033B000206A401C20626D1EF6D570BD70B50446B3
:1033C00085690078C00707D170BDD4E901212020AC
:1033D0009047206A401C20626D1EF6D570BD70B506
:1033E0000C460546012A05D02878800600D5EA69F2
:1033F000002302E0012305E05B1C934202D2E05C63
:103400000028F9D1A869E618C01AA861286A1844EA
:1034100028622846FFF7BCFF04E0D5E9012114F833
:10342000010B9047B442F8D32846FFF7C7FF70BDA1
:103430002DE9F0410646002410687529314616A58D
:1034400010D0AFF30080002802DA404213A507E055
:1034500031688A0701D512A502E0490704D511A5F4
:10346000012401E0AFF3008000210A2206F12407C5
:1034700009E0B0FBF2FCB0FBF2F302FB1C003030C1
:1034800078541846491C0028F3D123462A46304672
:10349000BDE8F04100F0BDB9000000002D000000C3
:1034A0002B0000002000000070B504460D462146A8
:1034B0001068AFF300802188090502D50F4A7A44CD
:1034C00002E00E4A7A440E32002104F1240305E0A2
:1034D00000F00F060009965D5E54491C0028F7D1E4
:1034E00020780023000704D5702D02D009B10223F3
:1034F00011322046BDE8704000F08BB960430100F6
:103500002DE9F05F894604464FF0000ADFF824B148
:10351000FB44C0F820A02046E168884700287DD001
:10352000252806D0D4E901219047206A401C20625A
:10353000F1E700255F462046E168884720280646D7
:1035400007DB312E05D2B81910F8200C08B105435D
:10355000F1E7A80701D525F00405C4F81CA0002751
:10356000C4F818A02A2E09D0304605F019FC38B34B
:1035700004EB8708303EC8F8186019E059F8041BBE
:10358000204604EB87029161E1688847012F0646D7
:1035900018D1E069002820DA25F020051DE0D8F8D0
:1035A000180000EB800006EB40003038C8F8180027
:1035B0002046E1688847064605F0F2FB0028EED178
:1035C000012F0AD02E2E08D12046E16888477F1CA3
:1035D0000646022F45F02005C4DBA069002803DA67
:1035E000404245F00105A061E80701D025F0100533
:1035F000A6B1A6F14100192802D8203645F400658D
:103600004A463146204625604D46FFF7FBFD60B136
:10361000012807D0ED1D25F0070000E007E000F1CC
:10362000080978E705F1040975E730467AE7206A6A
:10363000BDE8F09F3643010040EA010310B59B0747
:103640000FD1042A0DD310C808C9121F9C42F8D00C
:1036500020BA19BA884201D9012010BD4FF0FF30BD
:1036600010BD1AB1D30703D0521C07E0002010BDD3
:1036700010F8013B11F8014B1B1B07D110F8013B5F
:1036800011F8014B1B1B01D1921EF1D1184610BD40
:1036900010B5431C02E010F8011B71B18107FAD18B
:1036A0004FF0013202C88C1A8C4314EAC211F9D0CF
:1036B000C01A0A0603D0C01E10BDC01A10BD0A04ED
:1036C00001D0801E10BD0902FCD0401E10BD032A8F
:1036D00040F2308010F0030C00F0158011F8013B2F
:1036E000BCF1020F624498BF11F801CB00F8013B16
:1036F00038BF11F8013BA2F1040298BF00F801CBDA
:1037000038BF00F8013B11F0030300F02580083AB0
:10371000C0F0088051F8043B083A51F804CBA0E807
:103720000810F5E7121D5CBF51F8043B40F8043B5C
:10373000AFF30080D20724BF11F8013B11F801CB91
:1037400048BF11F8012B24BF00F8013B00F801CB62
:1037500048BF00F8012B704710B5203AC0F00B802D
:10376000B1E81850203AA0E81850B1E81850A0E885
:103770001850BFF4F5AF5FEA027C24BFB1E81850DF
:10378000A0E8185044BF18C918C0BDE810405FEA4F
:10379000827C24BF51F8043B40F8043B08BF7047CB
:1037A000D20728BF31F8023B48BF11F8012B28BFD0
:1037B00020F8023B48BF00F8012B70474FF0000291
:1037C00000B5134694469646203922BFA0E80C5017
:1037D000A0E80C50B1F12001BFF4F7AF090728BFF2
:1037E000A0E80C5048BF0CC05DF804EB890028BF6E
:1037F00040F8042B08BF704748BF20F8022B11F097
:10380000804F18BF00F8012B704770477047704712
:1038100070472DE9F0470D4699469246044600F15F
:1038200024080168880604D5E06921F010012160B0
:1038300000E00120A84201DD471B00E00027A1694C
:103840007A1902EB0900081AA0612078C00602D498
:103850002046FFF79DFD002608E0D4E901211AF873
:1038600006009047206A401C761C20624E45F4DB1F
:103870002078C0060AD52046FFF78AFD06E0D4E985
:10388000012130209047206A401C2062381EA7F199
:103890000107F4DC07E0D4E9012118F8050090479E
:1038A000206A401C2062281EA5F10105F3DC204699
:1038B000FFF784FD2078000602D50220BDE8F087DE
:1038C0000120FBE710B5436913B1AFF3008001E0BD
:1038D000FFF785FD012010BD127800F124010A7068
:1038E00000224A700122EDE711684FF0FF32E9E74C
:1038F000074B70B50D467B4400F011F8044628468E
:1039000000F020F810B14FF0FF3070BD204670BDC0
:103910008791000001694A1C02610878704700B570
:103920008FB0CDE901310021059105497944CDE9F8
:10393000031011466846FFF7E3FD0FB000BD00001D
:10394000E5FFFFFF007B00F080007047754600F048
:103950002BF8AE4605006946534620F00700854621
:1039600018B020B5FFF77EFCBDE820404FF0000600
:103970004FF000074FF000084FF0000B21F0070157
:10398000AC46ACE8C009ACE8C009ACE8C009ACE89A
:10399000C0098D46704710B50446AFF3008020463D
:1039A000BDE81040FFF749BC004870475CE10020CB
:1039B00002A0FFF7E1FC00BFFEE700006275732084
:1039C0006661756C740D0A007047000008B501212E
:1039D000442000F0E5FA1020ADF800008DF8030057
:1039E00003208DF8020069460C4800F00CF9102104
:1039F0000A4800F093F90220ADF8000010208DF87D
:103A0000030002208DF802006946054800F0FBF82B
:103A10000221034800F082F908BD000000080140BF
:103A20000018014010B50446FFF7D0FF00F0A4FBDA
:103A3000102000F00FFC204606F0AAFD40F276416F
:103A4000142006F04AFF022007F004F910BD000020
:103A500010B50DF079F80449086047214FF6FF7062
:103A600000F0DAFE10BD00001C00002070B50DF063
:103A70006BF805461A480068281AB0F5FA6F2DD978
:103A80001748056000220921164801F025F8002199
:103A9000144800F0AAFF1448007800F0800050B1EC
:103AA0001148007800F03F042404104800880444C2
:103AB0000F48046002E000200D49086000200A4918
:103AC00008700021074800F090FF0921054800F028
:103AD00089FF01220921034800F0FEFF70BD0000AC
:103AE0001C00002000040040E6000020E800002048
:103AF0001800002030B5044604254FF4302000F0B3
:103B00006FF80546042D17D10C48006940F00200FB
:103B10000A49086108464461006940F040000861B4
:103B20004FF4302000F05CF805460448006941F687
:103B3000FD71084001490861284630BD002002405F
:103B400004200B49C96801F0010109B101200EE010
:103B50000749C96801F0040109B1022007E00449DE
:103B6000C96801F0100109B1032000E0042070478A
:103B7000002002400348006940F0800001490861CC
:103B8000704700000020024070B504460D46042630
:103B9000F00200F025F80646042E11D1094800690C
:103BA00040F00100074908612580F00200F018F894
:103BB00006460448006941F6FE7108400149086163
:103BC000304670BD00200240024803494860034867
:103BD000486070472301674500200240AB89EFCD64
:103BE00000B502460423FFF7ABFF034603E0FFF7EF
:103BF000A7FF0346521E012B01D1002AF7D102B9BB
:103C00000523184600BD2DE9F04102460025002697
:103C1000002000230024002791F803C00CF00F05BA
:103C200091F803C00CF0100CBCF1000F03D091F818
:103C300002C04CEA050591F800C0BCF1000F31D07C
:103C4000146800202BE04FF0010C0CFA00F3B1F8DF
:103C500000C00CEA03069E4220D183004FF00F0CF7
:103C60000CFA03F7BC4305FA03FC4CEA040491F890
:103C700003C0BCF1280F06D14FF0010C0CFA00FC78
:103C8000C2F814C00AE091F803C0BCF1480F05D196
:103C90004FF0010C0CFA00FCC2F810C0401C0828C0
:103CA000D1D31460B1F800C0BCF1FF0F34DD54680B
:103CB00000202EE000F1080C4FF0010808FA0CF388
:103CC000B1F800C00CEA03069E4221D183004FF0F8
:103CD0000F0C0CFA03F7BC4305FA03FC4CEA04048E
:103CE00091F803C0BCF1280F05D100F1080C08FAC7
:103CF0000CF8C2F8148091F803C0BCF1480F07D14A
:103D000000F1080C4FF0010808FA0CF8C2F8108016
:103D1000401C0828CED35460BDE8F0810161704793
:103D200001464869806880B2704708B50146D1F8FD
:103D3000CC00006800900098C0F3414008BD0246E6
:103D400002F29F30405C7047024602F5557050F811
:103D50002100704770B504460E4600250021C4F8C6
:103D6000101300BF0BE0002104F5467040F8251049
:103D70003C3040F825103C304155681CC5B20F2D31
:103D8000F1DB0821A4F8B6133146204603F0C6FF44
:103D9000204603F0B9FB204603F080FA01212046BB
:103DA00004F024F8204603F00CFB204603F005FC49
:103DB000002070BD0146D1F8100370470146D1F8CC
:103DC0001403704710B50446204603F086FF002018
:103DD00010BD70B504460D46002104F29F304155D8
:103DE000113000EB451041612946204603F024FEC6
:103DF00070BD000002A0FFF7BFFA00BFFEE70000A1
:103E000068617264206661756C740D0A00000000C0
:103E100072B6704762B6704710B5044614B10120FF
:103E20000D4908700C48007868B10C48006850B91A
:103E30000A2005F061FB0948006850B900200649D6
:103E40000870012010BD05480068012801D1024911
:103E500008700020F6E70000E400002020812142E5
:103E600008B50121082000F09BF84FF48070ADF8F0
:103E7000000048208DF8030069460248FFF7C3FEA2
:103E800008BD0000000C014010B5FFF7E9FF10BDB0
:103E900002A0FFF771FA00BFFEE700006D656D201C
:103EA0006661756C740D0A007047000070B50021E2
:103EB00000230F22C47804B3154C246804F4E06492
:103EC000C4F5E064210AC1F10403CA40447804FA4D
:103ED00003F184781440214309010E4C0678A15562
:103EE000047804F01F050124AC4005786D11AD0085
:103EF00005F1E025C5F8004109E0047804F01F054C
:103F00000124AC40044D0678761145F8264070BD7A
:103F10000CED00E000E400E080E100E00249014334
:103F2000024A1160704700000000FA050CED00E045
:103F300010B5024802F08EFC10BD00003C030020CA
:103F400029B1064A52690243044B5A6104E0034A0C
:103F500052698243014B5A617047000000100240D1
:103F600029B1064AD2690243044BDA6104E0034AEC
:103F7000D2698243014BDA617047000000100240B1
:103F800029B1064A12690243044B1A6104E0034A4C
:103F900012698243014B1A61704700000010024011
:103FA00029B1064A92690243044B9A6104E0034A2C
:103FB00092698243014B9A617047000000100240F1
:103FC00029B1064AD2680243044BDA6004E0034A8E
:103FD000D2688243014BDA60704700000010024053
:103FE0002DE9F041002100220025002300260024B5
:103FF00000278C46DFF86081D8F8048008F00C01B7
:1040000021B1042907D0082959D109E0DFF84C81F2
:10401000C0F8008058E0DFF84481C0F8008053E029
:10402000DFF83481D8F8048008F47012DFF82881B2
:10403000D8F8048008F48035920C0D2A01D0921C27
:1040400000E0062235B9DFF8188102FB08F8C0F855
:10405000008033E0DFF80081D8F82C8008F4803647
:10406000DFF8F480D8F82C8008F00F0808F101047C
:1040700046B9DFF8E880B8FBF4F808FB02F8C0F8AE
:1040800000801BE0DFF8D080D8F82C80C8F303183C
:1040900008F10107DFF8C080D8F82C80C8F30328A6
:1040A00008F1020CDFF8B480B8FBF7F808FB0CF855
:1040B000B8FBF4F808FB02F8C0F8008004E0DFF871
:1040C0009C80C0F8008000BF00BFDFF88C80D8F86B
:1040D000048008F0F0010909DFF8888018F8013041
:1040E000D0F8008028FA03F8C0F80480DFF8688070
:1040F000D8F8048008F4E061090ADFF8688018F84D
:104100000130D0F8048028FA03F8C0F80880DFF8FE
:104110004880D8F8048008F46051C90ADFF8448068
:1041200018F80130D0F8048028FA03F8C0F80C80A1
:10413000DFF82480D8F8048008F44041890BDFF8C8
:10414000288018F80130D0F80C80B8FBF3F8C0F8DC
:104150001080BDE8F08100000010024000127A00DB
:1041600000093D00040100201401002001490860FD
:1041700070470000D800424200B587B001210420FA
:10418000FFF70EFF01210803FFF70AFFE020ADF85B
:10419000180018208DF81B0003208DF81A0006A9BE
:1041A0001548FFF730FDE0211348FFF7B7FD002069
:1041B000ADF804004FF48270ADF806000020ADF8B1
:1041C0000800ADF80A00ADF80C004FF40070ADF82F
:1041D0000E003820ADF810000020ADF812000720C6
:1041E000ADF8140001A9054800F062F80121034868
:1041F00000F044F807B000BD000801400030014065
:1042000070B50546002405E0601CC4B2C82C01DD71
:10421000002070BD02210E4800F03CF80028F3D0C9
:1042200029460B4800F042F8002405E0601CC4B2A7
:10423000C82C01DD0020ECE70121054800F02AF838
:104240000028F3D0024800F02EF8C0B2E1E70000E9
:104250000030014010B50446074800884FF6C7718A
:10426000084005490880084600882043088001214D
:10427000014800F003F810BD0030014021B1028870
:1042800042F04002028004E002884FF6BF731A40F9
:10429000028070470246002013890B400BB10120B9
:1042A00000E000207047014688897047818170478F
:1042B00010B50022028802F441520B884C88234337
:1042C0008C882343CC8823430C8923434C89234384
:1042D0008C892343CC8923431A430280838B4FF27A
:1042E000FF74234083830B8A038210BD30B50346DD
:1042F0000C461546002207E0184600F008F824F89E
:1043000012009B1C501C82B2AA42F5DB30BD014654
:10431000088870472DE9F05F80468A461746B8F155
:10432000006F02D33348804501D3BDE8F09FFFF70B
:104330004BFCA8F1006B4FEADB25CBF34909C9F52B
:104340008064A74200DC3C464DE04FF0006101EB89
:10435000C5204A142849FFF7C9FF00260BE009EBE6
:104360000600254931F810004FF6FF71884200D051
:1043700003E0701C86B2A642F1DB00BFA6421BDA46
:104380004FF0006101EBC520FFF7B4FB002608E009
:104390003AF8160006EB0901174A22F81100701CC2
:1043A00086B2A642F4DB4FF0006101EBC5204A144F
:1043B000114900F023F804E022465146404600F03F
:1043C0001DF8A74200D10FE06D1C4FF000090AEB69
:1043D000440AA044381B87B2B7F5806F02DD4FF462
:1043E000806400E03C46B0E700BFFFF7C3FB00BFBE
:1043F0009BE7000000000408600E00202DE9F0415A
:1044000005460E461746002407E036F814102846E5
:10441000FFF7BAFBAD1C601C84B2BC42F5DBBDE803
:10442000F081704710B500F001F810BD0CB5002008
:10443000019000903F48006840F480303D4908609A
:1044400000BF3C48006800F4003000900198401C18
:104450000190009818B90198B0F5A06FF1D13548D6
:10446000006800F4003010B10120009001E000204D
:104470000090009801285CD12F48006840F010009F
:104480002D4908600846006820F0030008600846CF
:10449000006840F0020008602648406825494860EE
:1044A0000846406848600846406840F480604860BC
:1044B0000846C06A214908401E49C8620846C06AC9
:1044C0001F4908431B49C8620846006840F08060E5
:1044D000086000BF1748006800F000600028F9D0AD
:1044E0001448406820F47C1012494860084640682F
:1044F00040F4E81048600846006840F080700860AA
:1045000000BF0C48006800F000700028F9D009488E
:10451000406820F00300074948600846406840F0C2
:104520000200486000BF0348406800F00C00082803
:10453000F9D10CBD001002400020024000F0FEFF47
:1045400014080100042808D14FF0E021096941F066
:1045500004014FF0E022116107E04FF0E02109690A
:1045600021F004014FF0E0221161704710B51648A8
:10457000006840F00100144908600846406813498B
:1045800008401149486008460068114908400E4932
:1045900008600846006820F48020086008464068EB
:1045A00020F4FE0048600846006820F0A050086033
:1045B0004FF47F0088600020C862FFF733FF4FF0A0
:1045C00000600449086010BD001002400000FFF0C8
:1045D000FFFFF6FE08ED00E0F0B50C4615460022A0
:1045E0000021068C4FF6FE773E400684028B018C3C
:1045F0004FF60C7632407E1C06EA03162E433243F9
:10460000104EB0420ED0104EB0420BD0B0F1804FE1
:1046100008D00E4EB04205D00D4EB04202D00D4E25
:10462000B04206D14FF6FD76314044F001063143E9
:1046300005E04FF6F576314044F001063143028340
:104640000184F0BD002C0140003401400004004012
:1046500000080040000C0040F0B50C461546002252
:1046600000210026078C4FF6EF7C07EA0C07078431
:10467000028B018C4FF6FF7707EA041640F6FF47DE
:104680003A404FF6FF7707EA03373A434FF6FF7792
:1046900007EA05273A43114FB8420ED0104FB842EF
:1046A0000BD0B0F1804F08D00E4FB84205D00E4F5E
:1046B000B84202D00D4FB84206D14FF6DF773940ED
:1046C00046F01007394305E04FF65F77394044F074
:1046D0001007394302830184F0BD0000002C014023
:1046E000003401400004004000080040000C00407D
:1046F000F0B50C461546002200210026078C4FF627
:10470000FF6C07EA0C070784828B018C4FF6FF775A
:1047100007EA04264FF60C773A404FF6FF7707EA90
:1047200003172F433A43114FB8420ED0104FB842EF
:104730000BD0B0F1804F08D00E4FB84205D00E4FCD
:10474000B84202D00D4FB84206D14FF6FF5739405C
:1047500046F48077394305E04FF2FF57394044F47F
:104760008077394382830184F0BD0000002C014032
:10477000003401400004004000080040000C0040EC
:10478000F0B50C461546002200210026078C4EF697
:10479000FF7C07EA0C070784828B018C4FF6FF77BA
:1047A00007EA043640F6FF473A404FF6FF7707EA3C
:1047B00005273A434FF6FF7707EA03373A43114F8D
:1047C000B8420ED0104FB8420BD0B0F1804F08D095
:1047D0000E4FB84205D00E4FB84202D00D4FB8422E
:1047E00006D14DF6FF77394046F48057394305E04E
:1047F00047F6FF57394044F4805739438283018498
:10480000F0BD0000002C01400034014000040040D5
:1048100000080040000C004030B589B005460C4649
:1048200001210220FFF79CFB01210820FFF7B8FBC4
:104830000120ADF8200048208DF8230008A91E486B
:10484000FFF7E1F9ADF81850ADF814400020ADF8CD
:104850001A00ADF8160005A9184800F081F90820E3
:10486000ADF808000220ADF80A000120ADF80C00F8
:104870000020ADF80E00ADF8100002A90F4800F0BE
:10488000D5F81D208DF8040002208DF805000020C9
:104890008DF8060001208DF8070001A8FFF706FB40
:1048A00000220921054800F017F90021034800F013
:1048B0009CF809B030BD0000000C0140000400402D
:1048C00010B501213A4800F09FF860B339480078EC
:1048D00000F0800018BB3748007800F04000F0B1CD
:1048E0003448007800F03F003F2813D100213048C1
:1048F00000F07BF8002209212D4800F0EDF82D484A
:10490000007840F080002B4908704FF6FF702A496C
:10491000088004E027480078401C264908700121DF
:10492000234800F05FF80821214800F06DF80028C6
:104930003DD02048007800F08000A0BB1D480078E2
:1049400000F04000C0B10021194800F04EF80022EC
:104950000921174800F0C0F81648007840F08000A0
:1049600014490870124800F04CF8134908800221DD
:104970000F4800F0BAF816E000200E4908700E4902
:10498000088000210A4800F0BDF80A48007840F08D
:104990004000084908700021054800F0A6F80121F0
:1049A000034800F022F80821014800F01BF810BD70
:1049B00000040040E6000020E800002010B50121BE
:1049C000064800F021F840B1054800681430044959
:1049D00008600121014800F005F810BD00140040F6
:1049E000E0000020CA430282704721B1028842F0F1
:1049F0000102028004E002884FF6FE731A40028032
:104A000070470146888F704730B50246002000236A
:104A10000024158A05EA0103958905EA010413B10A
:104A20000CB1012000E0002030BD000070B505464B
:104A30000C46244885420ED0234885420BD0B5F160
:104A4000804F08D02148854205D02148854202D0B8
:104A50002048854200D100E000BF208850B923895A
:104A6000A28861882846FFF7B7FDE188284600F054
:104A70004BF825E0208804280AD12389A288618880
:104A80002846FFF7E9FDE188284600F046F817E0E0
:104A9000208808280AD12389A28861882846FFF740
:104AA00027FEE188284600F045F809E02389A2881E
:104AB00061882846FFF764FEE188284600F043F845
:104AC00070BD0000002C0140003401400004004093
:104AD00000080040000C00401AB183890B43838119
:104AE00002E083898B43838170470A460021018C51
:104AF0004FF6FF5319404FF6FF7303EA02231943A1
:104B00000184704781847047028B4FF6F3731A401B
:104B10000283028B0A4302837047028B4FF2FF33FA
:104B20001A400283028B4FF6FF7303EA01231A43F4
:104B300002837047828B4FF6F3731A408283828B15
:104B40000A4382837047828B4FF2FF331A4082837D
:104B5000828B4FF6FF7303EA01231A438283704767
:104B6000002202881D4B98420ED01D4B98420BD05C
:104B7000B0F1804F08D01B4B984205D01A4B984299
:104B800002D01A4B984204D14FF68F731A404B88CB
:104B90001A43174B984207D0164B984204D04FF651
:104BA000FF431A40CB881A4302808B8883850B8889
:104BB00003850A4B98420BD0094B984208D00E4B04
:104BC000984205D00D4B984202D00D4B984201D12E
:104BD0000B7A03860123838270470000002C01407A
:104BE000003401400004004000080040000C004078
:104BF000001000400014004000400140004401400B
:104C00000048014010B500F031F80021C02000F04C
:104C100018F80021C12000F014F80021C22000F093
:104C200010F80021C32000F00CF80021C42000F08F
:104C300008F800F095F88C2000F032F800F0BAF88F
:104C400010BD70B505460C4600F08AF8442000F00F
:104C500027F800F0AFF800F083F8284600F020F8BD
:104C6000204600F01DF800F0A5F870BD08B5012140
:104C70000820FFF795F9C020ADF8000014208DF84A
:104C8000030003208DF8020069460448FEF7BBFFCD
:104C9000C0210248FFF742F808BD0000000C0140A7
:104CA00070B5044600252B48006820F07040294963
:104CB00008600846006840F040500860002026491F
:104CC0000860002617E004F001002349091D086070
:104CD0006410042004F036FC01202049C1F898013A
:104CE000022004F02FFC00201B490860022004F081
:104CF00029FC701CC6B2082EE5DB1648006820F0BF
:104D00007040144908600846006840F000400860A0
:104D100001201149091D0860022004F013FC002045
:104D20000E49C1F89801022004F00CFC05E0681C53
:104D3000C5B2FA2D01DD012070BD07487C3800683E
:104D40000028F4D1012004490860022004F0FAFB95
:104D50000020F1E7000C01409881214200802142AF
:104D600010B51148006820F070400F4908600846EF
:104D7000006840F04050086001200C4908600C4970
:104D8000C1F89801042004F0DDFB00200749086009
:104D9000042004F0D7FB00200549C1F89801042045
:104DA00004F0D0FB10BD0000000C01409C812142AA
:104DB0000080214210B51348006820F0704011496E
:104DC00008600846006840F04050086000200E4926
:104DD0000860022004F0B6FB00200C49C1F89C01D9
:104DE000022004F0AFFB012007490860042004F012
:104DF000A9FB01200549C1F89C01042004F0A2FB95
:104E000010BD0000000C0140988121420080214229
:104E100021B1828942F40052828104E082894DF6F8
:104E2000FF731A408281704710B5044620488442BF
:104E300009D101218803FFF7C3F800214FF4804016
:104E4000FFF7BEF832E01B48844209D10121480433
:104E5000FFF796F800214FF40030FFF791F825E0B6
:104E60001548844209D101218804FFF789F80021FF
:104E70004FF48020FFF784F818E01048844209D1ED
:104E80000121C804FFF77CF800214FF40020FFF750
:104E900077F80BE00A48844208D101210805FFF7A2
:104EA0006FF800214FF48010FFF76AF810BD000082
:104EB000003801400044004000480040004C0040E1
:104EC0000050004002460020B1F5007F00D100BF35
:104ED00013880B400BB1012000E000207047000058
:104EE0002DE9F04786B005460E460024A24600BFD5
:104EF000A1460027B08900B100BF2F462C8A4CF68E
:104F0000FF700440F08804432C82AC894EF6F31005
:104F10000440B08831890843718908430443AC8157
:104F2000AC8A4FF6FF400440B0890443AC8201A82C
:104F3000FFF756F81F48874202D1DDF810A001E0C4
:104F4000DDF80CA0A88900F4004040B10AEBCA00CB
:104F500000EB0A1031684900B0FBF1F807E00AEBFA
:104F6000CA0000EB0A1031688900B0FBF1F8642038
:104F7000B8FBF0F004012009642101FB1089A88925
:104F800000F4004040B1322000EBC900B0FBF1F06A
:104F900000F00700044308E0322000EB0910642110
:104FA000B0FBF1F000F00F0004432C8106B0BDE827
:104FB000F087000000380140C1F30802828070478A
:104FC00070B505460E46284600F0CCF904464FF66B
:104FD000FF70844205D046F4004105F5B26020F828
:104FE0001410E0B270BD2DE9F04105460E4617469B
:104FF0001C46012105F56C7000EB4410817005F52D
:105000006C7000EB4410C66005F56C7000EB44104A
:10501000076105F56C7000EB4410007E30B900218B
:1050200005F56C7000EB4410017205E0022105F5F6
:105030006C7000EB4410017221462846FEF7C9FE51
:105040000020BDE8F0812DE9F04105460E461746E7
:105050001C46002105F56C7000EB4410817005F5CD
:105060006C7000EB4410C66005F56C7000EB4410EA
:10507000076105F56C7000EB4410407E28B905F51A
:105080006C7000EB4410017205E0022105F56C70B4
:1050900000EB4410017221462846FEF79AFE0020DC
:1050A000BDE8F0812DE9F04105460C4616461F4645
:1050B00002212175012161750021E182268361832E
:1050C00006F08000802805D105F56C7000EB4710D4
:1050D000017605E0002105F56C7000EB4710417684
:1050E00000231A462146284600F02BF8BDE8F0813F
:1050F00001460122C1F81023002070472DE9F0413C
:1051000005460E4617461C46012105F56C7000EB5E
:1051100044108170022105F56C7000EB441001729F
:1051200005F56C7000EB4410C66005F56C7000EB83
:105130004410076121462846FEF74BFE0020BDE8DB
:10514000F0812DE9F04180460C4615461E460127A8
:10515000E078012802D0022820D108E03246294612
:10516000204601F03CFE0220E070012717E0207F7E
:105170000D2805D10120E0700021217700270CE0E7
:10518000207F0B2803D10120E070022705E0207F5B
:105190000C2802D10120E070032700E000BF00BF0F
:1051A0003846BDE8F0812DE9F04105460F46164628
:1051B0001C46002105F56C7000EB4410817005F56C
:1051C0006C7000EB4410C76005F56C7000EB441088
:1051D00006612EB9012105F56C7000EB4410417693
:1051E00005F56C7000EB4410407E30B9002105F5E8
:1051F0006C7000EB4410017205E0022105F56C7043
:1052000000EB4410017221462846FEF7E2FD002023
:10521000BDE8F08170B505460E461446002105F53F
:105220006C7000EB44108170032105F56C7000EB8D
:105230004410017205F56C7000EB4410C660082143
:1052400005F56C7000EB4410016121462846FEF71D
:10525000C0FDC0B270BD0246022106E0002302F587
:10526000B26020F81130481CC1B20829F6DB0020DA
:10527000704770B505460C46002020706070A07025
:105280000120E070012121774021A171002084F8E4
:1052900020000121212001552179284600F031F814
:1052A0006179284600F02DF8002070BD10B5044645
:1052B0000021204601F0B5FF0020E1688861401E12
:1052C000E1684861204602F01FF90021C4F810137C
:1052D000002010BD70B504460D46052D01D0042DEB
:1052E00006D1D4F89010486C80470C20207007E05D
:1052F000062D05D10C202070D4F890100868804746
:1053000070BD0246082909DA02F5B26030F81100D2
:10531000C0F30E0302F5B26020F811300020704790
:105320002DE9F04780460C4616461D46DDE90897F4
:1053300046F08001217506216175E58205F47F4004
:10534000B0F5407F03D140F20941218301E0002103
:10535000218367833B464A4621464046FFF7F1FEDC
:10536000BDE8F0870246002100BF0AE002F5B26006
:1053700030F8110000F4004008B908467047481C96
:10538000C1B20829F2DB4FF6FF70F7E710B502460D
:105390000B88147823440B801378981810BD0000F4
:1053A0002DE9FC4704460D4616464FF0000804F56B
:1053B00088704FF4007300222946CDE9000620468C
:1053C000FFF7AEFFB0F100091BD10AE004F58870C9
:1053D00010F808000C4901F8080008F101001FFA54
:1053E00080F8B045F2DB04F5887305F1500205F151
:1053F0003E0105F13400009601F0CEFA074607B1F0
:10540000B9464846BDE8FC87C0DA00202DE9FC41DA
:1054100004460D46164604F588704FF4807300224A
:105420002946CDE900062046FFF77AFF071E06D180
:10543000324604F5887105F1220001F047FB384639
:10544000BDE8FC812DE9FC470446884615461E460A
:105450000A9F04F5887045F4407300224146CDE967
:1054600000072046FFF75CFFB0F1000905D13A467E
:10547000314604F5887001F078FB4846BDE8FC87AA
:105480002DE9F04106460C464FF0000800250021AA
:10549000A174207F0C2878D2DFE800F077060F3D5A
:1054A000466778939CC2D9F0627904F114013046C2
:1054B000FFF7B0FE02212177F1E061793046FEF777
:1054C0003EFC0546012D1FD1207D00F08007608B3A
:1054D00058B141F2883074490880802F02D10321ED
:1054E00021770CE00521217709E032206E49088000
:1054F000802F02D10921217701E007212177304651
:10550000FEF70EFC208205E0032D03D10B2121774D
:105510000521A174C3E02379A2893046A168FFF771
:10552000EDFD04212177BAE021793046FEF707FC32
:105530000546012D01D109212177042D04D1607880
:1055400020700C2121770FE0032D02D10B21217750
:105550000AE03046FEF7E4FB218A401A52490988E6
:10556000884201D90B21217799E00121627906F562
:105570006C7000EB421041766379A2893046A168D5
:10558000FFF711FE0621217789E087E06179304637
:10559000FEF7D5FB0546012D02D1072121770FE04B
:1055A000042D04D1607820700C21217708E0022DB1
:1055B00002D10521217703E0032D01D10B212177B1
:1055C0006DE02379002211463046FFF797FD082150
:1055D000217764E021793046FEF7B1FB0546012DC5
:1055E00004D1607820700D21217718E0032D02D1BD
:1055F0000B21217713E03046FEF792FB218A401AF7
:1056000029490988884202D90B21217707E0042D16
:1056100005D1607820700C2121774FF003083EE01F
:10562000617906F56C7000EB4110407E80F001015D
:10563000627906F56C7000EB4210417663790022C6
:1056400011463046FFF7AFFD0A21217727E0617947
:105650003046FEF774FB0546012D04D160782070BA
:105660000D21217708E0022D02D10921217703E0E5
:10567000032D01D10B21217711E0FFE7A07B401C16
:10568000C1B2A173022902DC0121217705E00821C2
:10569000A174607820704FF0020800E000BF00BFE6
:1056A0004046BDE8F08100001C02002070B592B0B9
:1056B00005460C460126A0780A287BD2DFE800F0D8
:1056C0000525345A677B98B5D2DC08222146284646
:1056D000FFF79CFEC0B994F82910A1710120A070B9
:1056E000A0790021CDE90010617900231A462846EF
:1056F00001F07EF8A0790021CDE900102179002386
:105700001A46284601F074F8B9E0122221462846CC
:10571000FFF77CFE38B9D4F89000C16904F122008B
:1057200088470220A070AAE001222146284601F005
:1057300030FBF0B9022001F0A5FD0120A41CA077E8
:10574000D4F88E10086A8047032020700020009053
:105750000190A27FA1780346284601F049F8002075
:1057600000900190A27FA41E61790346284601F0B3
:105770003FF884E0092221462846FFF711FE28B9A8
:10578000E08EB0F5806F01DC0420A07077E0E28E3F
:1057900021462846FFF704FE58B9D4F8900004F1DA
:1057A000500204F13E01436A04F134009847052099
:1057B000A07064E062E094F8300088B1FF200090AF
:1057C00094F8302002AB21462846FFF73BFE70B923
:1057D000D4F89000816A02A888470620A07006E0ED
:1057E000D4F89000816A28A088470620A07046E07F
:1057F00094F8310088B1FF20009094F8312002AB7A
:1058000021462846FFF71EFE70B9D4F89000C16A01
:1058100002A888470720A07006E0D4F89000C16A6B
:1058200019A088470720A07029E094F8320088B1B9
:10583000FF20009094F8322002AB21462846FFF763
:1058400001FE70B9D4F89000016B02A888470820C7
:10585000A07006E0D4F89000016B0BA088470820E8
:10586000A0700CE094F839202146284601F0A4FAF3
:1058700008B90920A07002E0002600E000BF00BFC8
:10588000304612B070BD00004E2F41002DE9F041AE
:1058900006460F4614461D46DDF81880304601F0D6
:1058A000D3FC002001F0BCFC21463046FFF7E1FCB0
:1058B000C4F88C50C4F8908039463046FEF74AFA56
:1058C000D4F8901008688047304601F0ABFCBDE882
:1058D000F08100002DE9F04105460E4614460127EF
:1058E00014B1012C12D108E010480378C278314677
:1058F0002846FFF7D7FB074609E00C484378827833
:1059000031462846FFF7CEFB074600E000BF00BF48
:1059100007480068401C06490860084600680428DB
:1059200000D904273846BDE8F081000000DD0020E2
:105930002402002010B5024600200023014C2370F1
:1059400010BD0000F0DC00202DE9F04105460F46B7
:10595000002601242846FEF72DFA20B315480178C9
:105960002846FEF7F1F906460D2E01D002241CE070
:10597000114800681149884216D10F484068104903
:105980004968884211D10C48007B08B900240CE01A
:105990000948007B012801D1012406E00648007B6C
:1059A000022802D1022400E002240648C4732046E3
:1059B000BDE8F08100DD0020E0DC002055534253BB
:1059C000C0DC0020F0DC0020012812D10D4909784C
:1059D000491C0C4A1170114609780A2905DA06217A
:1059E000094A11700121D1700AE00A21064A11709A
:1059F00006E0022803D10A21034A117000E000BF2B
:105A00007047000044020020F0DC002070B505461D
:105A10000C46A1212175FE2161750021E1822183BF
:105A2000012161830123034A21462846FFF789FBB0
:105A300070BD000008DD00202DE9F04781460F46CB
:105A40003E46012503244FF000084846FEF7B2F910
:105A5000002878D0554800780B2875D2DFE800F090
:105A600006A10D44556692797E339000484600F0B9
:105A7000A9FA02204D49087094E039464846FFF7DC
:105A8000C5FF0546BDB94A48007A494981F8480032
:105A9000084690F8480000280ADD4648007838B9E2
:105AA000012044490870D6F89010086C804779E0CE
:105AB00003203E490870032D04D103203B49487060
:105AC000092008706EE07379002239464846FFF7D6
:105AD000E9FA05463DB90020354981F848003348C8
:105AE0004078324908705DE0484600F0B7FD044652
:105AF0003CB904202D49087000202F49087000256A
:105B000002E02046FFF760FF4CE0484600F0C8FC8A
:105B100004463CB905202549087000202649087034
:105B2000002502E02046FFF74FFF3BE0484600F02B
:105B3000CFFB04464CB908201C49087000201E49C0
:105B40000870002504E02EE02BE02046FFF73CFF24
:105B500028E03946484600F031F823E0D6F89010A6
:105B6000C86B804700F0FF08B8F1000F03D1082090
:105B70000E49087003E0B8F1010F00D1062511E0CD
:105B800004250FE0484600F0F9FC04462CB907480C
:105B9000407806490870002502E02046FFF714FF10
:105BA00000E000BF00BF2846BDE8F087F0DC002021
:105BB00000DD002058020020440200202DE9F047BB
:105BC0008046894600244046FEF7F4F800287DD040
:105BD000F248007909287AD2DFE800F079051568E3
:105BE000CEFDFCFBFA00EE4843781F22ED4940460B
:105BF000FFF729FA0120E9494871022008710020C5
:105C0000E9490870C6E1E64841784046FEF797F852
:105C10000446012C26D10020E44908600220DF4917
:105C20004871E048007B00F08007DE488068A8B13A
:105C3000DC488068DE490860D8488068DD49086033
:105C400008460068DC490860802F03D10320D3494F
:105C500008712AE00420D149087126E00520CF49C7
:105C6000087122E0022C04D1CC484079CB4908715C
:105C70001BE0042C06D10120D04908700820C74938
:105C8000087112E0032C10D1C7480078401CC649A7
:105C9000087008460078032804DAC0484079BF49F4
:105CA000087102E00220BD49C87373E1BC48017865
:105CB0004046FEF744F80446012C03D0B74840792B
:105CC00003283AD00020B949086001E063E160E1AF
:105CD0000320B2494871B2488088B54909688842B2
:105CE00016D2AF4803788288B24801684046FFF771
:105CF0007AF9AB488088AE490968081AAC4908604F
:105D0000A7488088AB4909680844AA49086032E07E
:105D1000A748006818B90520A04908712BE0A048E1
:105D20000378A348008882B2A24801684046FFF782
:105D30005AF900209E4908601DE0042C08D100207B
:105D40009E4908700720954908710520487112E0A6
:105D5000032C10D194480078401C934908700846E1
:105D60000078032804DA8D4840798C49087102E0F4
:105D700002208A49C8730DE1894841784046FDF701
:105D8000DEFF0446012C43D100208849086004202E
:105D9000824948718248C08885490968884222D270
:105DA0007F484378C288834801684046FFF74BF933
:105DB00080480068804908607948C0887D49096842
:105DC00008447C4908607648C0887949096803E03E
:105DD000CDE0B2E07CE059E0081A75490860002087
:105DE0007149087051E07248006818B905206B4984
:105DF00008714AE06A4843786D48008882B26D486D
:105E000001684046FFF71FF90020694908603CE03F
:105E1000022C1CD1674800686749096888420DD088
:105E20005F484378C288C088DFF888C1DCF800C0CA
:105E3000ACEB00014046FFF706F926E058484378EE
:105E4000C2885C4801684046FFF7FDF81DE0042C5D
:105E500008D10120594908700820504908710520CF
:105E6000487112E0032C10D14F480078401C4E4975
:105E7000087008460078032804DA48484079474902
:105E8000087102E002204549C87383E005204349B8
:105E900048714B4888603F2088810C2604E0002030
:105EA00047498855701EC6B2002EF8D100204449DB
:105EB00008703B48037839483F2281684046FFF725
:105EC00092F806203549087100203749087061E0D2
:105ED000334801784046FDF732FF0446012C0FD1CC
:105EE00000203249086005202C4948710846807816
:105EF000087049464046FFF727FD2849C8731BE054
:105F0000042C06D100202D49087007202349087170
:105F100012E0032C10D124480078401C224908705C
:105F200008460078032804DA1C4840791B490871A8
:105F300002E002201949C8732CE00022494640467D
:105F4000FFF7C8FC054665B91C480078022803D154
:105F500008201249087109E0104840790F4908717A
:105F600004E0042D02D102200C49C87312E0012282
:105F700049464046FFF7AEFC054625B9074840793B
:105F80000649087104E0042D02D102200349C873B8
:105F900000E000BF00BFBDE8F0870000F0DC00209B
:105FA00000DD0020C0DC00202802002024020020A8
:105FB0002C02002030020020340200203802002091
:105FC000E0DC002010B504462046FDF7F3FE48B1A2
:105FD00007480849086008484860002048730120C5
:105FE0000649C8700020064908600649087010BDBF
:105FF00055534243C0DC002050403020F0DC0020EC
:10600000240200204402002070B504460D461048CA
:10601000407860B10E484178204601F0A4FB0C485E
:1060200041782046FFF76DF900200949487008487B
:10603000007860B106480178204601F094FB0448DE
:1060400001782046FFF75DF900200149087070BD16
:1060500000DD00207CB506460D462C4694F8430032
:10606000082856D194F84500502852D194F852008F
:1060700000F0800038B194F852004649C870B4F876
:106080005400888006E094F8520042498870B4F8C1
:106090005400C88094F85A0000F0800038B194F899
:1060A0005A003C49C870B4F85C00888006E094F857
:1060B0005A0038498870B4F85C00C8803548817847
:1060C0003046FEF77DFF334948700846C1783046B8
:1060D000FEF776FF2F4908700846C0880221CDE9F7
:1060E00000102120035D94F820202A484178304692
:1060F00000F004FC274880880221CDE9001021200F
:10610000035D94F8202023480178304600F0F6FB28
:106110003EE094F84300092803D11FA0FDF72CF9B5
:1061200032E094F84300022803D121A0FDF724F9BE
:106130002AE094F84300032803D12CA0FDF71CF9B2
:1061400022E094F84300072803D130A0FDF714F9AA
:106150001AE094F843000B2803D135A0FDF70CF9A1
:1061600012E094F843000E2803D13BA0FDF704F998
:106170000AE094F84300102803D140A0FDF7FCF892
:1061800002E048A0FDF7F8F8D4F89010086C8047BA
:1061900000207CBD00DD0020487562206973206E00
:1061A0006F7420737570706F727465642E0D0A00C1
:1061B000436F6D6D756E69636174696F6E73206195
:1061C0006E642043444320436F6E74726F6C20648E
:1061D0006576696365206973206E6F7420737570CE
:1061E000706F727465642E0D0A00000048494420E7
:1061F000646576696365206973206E6F74207375BA
:1062000070706F727465642E0D0A00005072696EB2
:1062100074657220646576696365206973206E6FAA
:106220007420737570706F727465642E0D0A0000AF
:10623000536D617274204361726420646576696392
:1062400065206973206E6F7420737570706F72743F
:1062500065642E0D0A000000566964656F20646550
:106260007669636520206973206E6F742073757082
:10627000706F727465642E0D0A00000041756469C8
:106280006F2F566964656F20446576696365732076
:106290006973206E6F7420737570706F72746564AB
:1062A0002E0D0A005468652061747461636865642A
:1062B00020646576696365206973206E6F7420734E
:1062C0007570706F727465642E200D0A00000000F6
:1062D00070B5054603262846FDF76CFD002855D00D
:1062E0002B48C078012802D002284DD127E03F205A
:1062F00028498860802008730A208873264824492A
:106300008860052088700F2405E0002121480F30A7
:106310000155601EC4B2002CF7D11A201D49C87364
:106320003F211C484174C17401201949087107209C
:1063300008700320C8730220C870032625E01448A3
:10634000C07B80B91448807800F0800018B101202B
:106350001249087302E000201049087301200C491B
:10636000C87000260FE00A48C07B012803D1084905
:10637000C870012607E00648C07B022803D101202F
:106380000349C870022600E000BF00BF304670BD60
:10639000F0DC0020C0DC00205CDD00204CDD0020B3
:1063A000FFB581B007460E461D46032039490870E7
:1063B0003846FDF7FFFC002867D03748C078012831
:1063C00002D002285FD139E034488560802033490B
:1063D00008730A208873304886600F2405E0002186
:1063E0002E480F300155601EC4B2002CF7D1282072
:1063F0002A49C8739DF80F10284841749DF80E1063
:1064000081749DF80D10C1749DF80C100175C5F3D1
:106410004F2000909DF80110204881759DF80010D4
:10642000C17501201C490871072008700320C8733A
:106430000220C87003201749087025E01648C07B69
:1064400050B93846FDF7B6FC30B101201249C8708A
:1064500000201049087015E00F48C07B012807D1C3
:106460003846FDF7A7FC18B101200B49C87009E0B8
:106470000948C07B022805D101200749C8700220C5
:106480000449087000E000BF00BF0248007805B072
:10649000F0BD000059020020F0DC0020C0DC00202C
:1064A00070B5054603262846FDF784FC00285AD01F
:1064B0002E48C078012802D0022852D123E00820BB
:1064C0002B498860802008730A208873294827494F
:1064D0008860042088700F2405E0002124480F30D4
:1064E0000155601EC4B2002CF7D125202049C87385
:1064F00001201E490871072008700320C87302207C
:10650000C87003262EE01948C07BC8B91948007826
:106510001949C870174840788870164880784870C4
:106520001448C078087013488179134841721148A3
:10653000C0791149087201200C49C87000260FE08B
:106540000A48C07B012803D10849C870012607E02A
:106550000648C07B022803D101200449C8700226E6
:1065600000E000BF00BF304670BD0000F0DC00203E
:10657000C0DC00205CDD00204CDD002070B505464D
:1065800003262846FDF716FC00285DD02F48C0786A
:10659000012802D0022855D12BE03F202C498860E9
:1065A000802008730A2088732A4828498860084692
:1065B00080784870062088700F2405E00021244868
:1065C0000F300155601EC4B2002CF7D103202049C2
:1065D000C87300211E4801743F21C17401201B496A
:1065E0000871072008700320C8730220C8700326B2
:1065F00029E01648C07BA0B9164801781648C17139
:1066000014484178144881711248817812484171C8
:106610001048C0781049087101200C49C870002644
:106620000FE00A48C07B012803D10849C870012641
:1066300007E00648C07B022803D101200349C87047
:10664000022600E000BF00BF304670BDF0DC002035
:10665000C0DC00205CDD00204CDD002070B505466C
:1066600003262846FDF7A6FB002846D02448C0781C
:10667000012802D002283ED124E000202149886070
:1066800008730620887320481D4988603F20888150
:10669000032088700F2405E000211A480F300155AF
:1066A000601EC4B2002CF7D100201649C873012027
:1066B00013490871072008700320C8730220C870AE
:1066C000032619E00E48C07B20B901200C49C87090
:1066D00000260FE00A48C07B012803D10849C87092
:1066E000012607E00648C07B022803D101200449A7
:1066F000C870022600E000BF00BF304670BD000039
:10670000F0DC0020C0DC0020E0DC00202DE9FF41AF
:1067100082B007460E461D464FF003083846FDF787
:1067200049FB00285BD03048C078012802D00228FD
:1067300053D138E02D48856000202C4908730A2089
:106740008873294886600F2405E0002127480F3010
:106750000155601EC4B2002CF7D12A202349C8730A
:106760009DF81310214841749DF8121081749DF812
:106770001110C1749DF810100175C5F34F200190E0
:106780009DF80510194881759DF80410C175012008
:1067900015490871072008700320C8730220C870CB
:1067A0004FF003081AE01048C07B28B901200E49B9
:1067B000C8704FF000080FE00B48C07B012802D1E1
:1067C0000949C87008E00848C07B022804D10120AC
:1067D0000549C8704FF0020800E000BF00BF404606
:1067E00006B0BDE8F0810000F0DC0020C0DC002035
:1067F0002DE9F04704460D4617461E46DDE9089888
:1068000027B104F56C7000EB4510077004F56C704F
:1068100000EB4510C088404508D0B8F1000F05D006
:1068200004F56C7000EB4510A0F8068004F56C7060
:1068300000EB4510C078B04205D026B104F56C706D
:1068400000EB4510C6702946204600F0D9FF002015
:10685000BDE8F08738B505460024002000902846A2
:1068600001F0F9F9002847D0284601F0FEF9009020
:10687000009808B9002038BD0098C0F3C00018B1D6
:10688000284602F0A9F904430098C0F3001018B19B
:10689000284602F0EEF804430098C0F3401018B107
:1068A000284601F01AFF04430098C0F3806018B135
:1068B000284602F047F804430098C0F3406018B13E
:1068C000284601F0F4FA04430098C0F3006018B1C0
:1068D000284601F099FF04430098C0F3407018B1B6
:1068E000284601F0ABFA04430098C0F3405018B1B9
:1068F000284601F0B9FA04432046BCE72DE9F047E9
:1069000004460D4617461E46DDE9088904F5B260C7
:1069100010F8150000F07F0104F56C7000EB4510D5
:10692000417004F5B26010F81500C0F3C01104F511
:106930006C7000EB4510817004F56C7000EB451035
:10694000077004F56C7000EB451080F8058004F5C5
:106950006C7000EB4510A0F8069004F56C7000EB2D
:106960004510C670002104F56C7000EB45100176EF
:1069700004F56C7000EB451041762EB9012104F549
:106980006C7000EB451001712946204600F038FF7D
:106990000020BDE8F08700002DE9F04F87B00646E3
:1069A0008A4693461D462C460027B84600BF2878E5
:1069B000307068787070A978E87801EB00207080FA
:1069C0002879307168797071A879B071E879F071BF
:1069D000287A30721098092872DD092001903079E8
:1069E000022864DC002006905BE001A92046FEF747
:1069F000CDFC04466078042853D1A07847B207EB59
:106A0000C70050440690E07803284ADA214603A8DC
:106A100000F098F84FF000089DF8100003283ADCC9
:106A200034E001A92046FEF7B1FC04466078052851
:106A30002CD107EB47000BEBC00000EBC800029025
:106A400020480078B84206D01E490F7003A9069866
:106A500000F078F80CE02179607901EB00201A4908
:106A60000988884200DA15E003A9069800F06AF860
:106A70002146029800F056F82179607901EB002058
:106A80001149088008F101004FFA80F89DF81000C4
:106A90004045C6DC05E04FF00309484607B0BDE8B5
:106AA000F08F7088BDF8041088429EDC03E04FF040
:106AB00003094846F2E700200349088001490870AD
:106AC0000020EBE7200200201E02002010B50B780A
:106AD00003704B7843708C78CB7804EB03234380AE
:106AE0000B7903714B7943718B798371CB79C371C6
:106AF000082A16DD0C7A4B7A04EB032303818C7A87
:106B0000CB7A04EB032343810C7B4B7B04EB032305
:106B100083818B7B8373CB7BC3730B7C03744B7C34
:106B2000437410BD0A7802704A7842708A78827085
:106B3000CA78C2700B794A7903EB022282808A7983
:106B4000827170470A7802704A7842708A7882703F
:106B5000CA78C2700A7902714A7942718A7982715F
:106B6000CA79C2710A7A0272704730B51346457805
:106B7000032D14D10578AD1E9D4202DC0578AD1EB3
:106B800000E01D46ACB2801C002204E0855C0D7064
:106B9000491C951CAAB2A242F8DB00250D7030BD3D
:106BA00001460022C1F8142300207047014601224B
:106BB000C1F81423002070473EB505460C4602205C
:106BC00002902846FDF7F6F818B12846FDF7F6F8CA
:106BD00030B9207820B12078032801D0032020701C
:106BE00020780D287CD2DFE800F0071822B1CE5FB4
:106BF0007C8F9C6BCECEA1002846FDF7DBF858B108
:106C000001202070642000F03DFB2846FDF7DAF8F3
:106C1000D4F89010C8688047B6E0D5F8140301286E
:106C200004D102202070322000F02CFBACE0D4F81C
:106C300090108868804700212846FEF7C1F96071EE
:106C400080212846FEF7BCF920712846FDF7BAF8E6
:106C500048BBD4F89010C86880472846FDF765F80F
:106C6000C1B221200155052020702122105DD4F8E9
:106C7000902091698847A0790021CDE9001021205A
:106C8000035D94F8202021792846FFF737FEA0798C
:106C90000021CDE900102120035D94F820206179C6
:106CA0002846FFF72BFE6FE021462846FEF7FEFC44
:106CB00028B9D4F89010486B80470920207063E011
:106CC000D4F89010886B8047012808D1D4F88C0044
:106CD000214602682846904708B90620207053E0F4
:106CE00051E0D4F88C0021468268284690470290F3
:106CF0009DF8080010B90720207004E09DF80810E6
:106D00002046FEF7E7FA3FE0D4F88C002146C2683F
:106D10002846904702909DF808102046FEF7DAFAC0
:106D200032E021462846FEF7ABFB2DE021462846FF
:106D3000FEF79FFAD4F8901048688047D4F88C008A
:106D400004F120014268284690471DE0D4F89010D5
:106D50000869804721462846FEF78BFAD4F8901040
:106D600048688047D4F88C0004F120014268284626
:106D700090472846FEF76FFA002020700121284630
:106D8000FCF7E8FF00E000BF00BF3EBD0146002069
:106D9000704770B506460C46154600212175052141
:106DA0006175E58200212183618300231A46214613
:106DB0003046FEF7C6F970BD70B506460C4615465E
:106DC0000021217509216175E582002121836183FC
:106DD00000231A4621463046FEF7B3F970BD10B5C0
:106DE0000346187858700820187099609A81012419
:106DF0001C77002010BD00002DE9F04105460E462D
:106E0000174601241148FCF7D5FFC0B1104800789F
:106E1000012814D100BF7B02324629460B48FFF7F8
:106E2000BFFA04460B490948FEF7C8FE0748FCF7BD
:106E3000C1FF08B9012401E0032CECD000E00124DB
:106E400004B900242046BDE8F08100003C03002086
:106E50005C020020A802002010B50248FCF7AAFF3F
:106E6000C0B210BD3C0300202DE9F04105460E469E
:106E7000174601241148FCF79DFFC0B11048007867
:106E8000012814D100BF7B02324629460B48FFF788
:106E90003DFC04460B490948FEF790FE0748FCF705
:106EA00089FF08B9012401E0032CECD000E00124A3
:106EB00004B900242046BDE8F08100003C03002016
:106EC0005C020020A80200202DE9F04106460C4695
:106ED000174625466879082803D106A0FCF74CFA26
:106EE00005E06879032802D107A0FCF745FABDE860
:106EF000F0810000BFC9D2C6B6AFB4E6B4A2C6F7EF
:106F0000C9E8B1B8210D0A0048494420C9E8B1B820
:106F1000210D0A0000200149087070475C02002022
:106F200010B502A0FCF728FA10BD0000B4D3BBFADC
:106F3000B5D8D6B7B7D6C5E4B3C9B9A6210D0A00EE
:106F400010B502A0FCF718FA10BD0000BCECB2E2CC
:106F5000B5BD555342C9E8B1B8B2E5C8EB210D0A39
:106F60000000000010B502A0FCF706FA10BD0000FA
:106F7000555342C9E8B1B8B0CEB3F6210D0A0000AE
:106F800010B502A0FCF7F8F910BD0000CEDEB7A8DE
:106F9000CAB6B1F0B5C4555342C9E8B1B8210D0A1B
:106FA0000D0A000010B504461CB90AA0FCF7E4F96C
:106FB0000EE0012C03D10CA0FCF7DEF908E0022C56
:106FC00003D10EA0FCF7D8F902E011A0FCF7D4F928
:106FD00010BD0000B8DFCBD928485329555342C90A
:106FE000E8B1B8210D0A0000C8ABCBD92846532917
:106FF000555342C9E8B1B8210D0A0000B5CDCBD92F
:10700000284C5329555342C9E8B1B8210D0A000054
:10701000C9E8B1B8B4EDCEF3210D0A0070B504464D
:107020002546298903A0FCF7A7F9698905A0FCF783
:10703000A3F970BD5649443A2025303458680D0AEA
:10704000000000005049443A2025303458680D0AA9
:107050000000000010B502A0FCF78EF910BD000082
:10706000C9E8B1B8C3B6BED9CDEAB3C9210D0A0D7E
:107070000A00000010B505A0FCF77EF909A0FCF796
:107080007BF910A0FCF778F910BD000055534220A1
:107090004F5447204853204D534320486F73740D7D
:1070A0000A0000003E2055534220486F7374206C44
:1070B00069627261727920737461727465642E0DF5
:1070C0000A000000202055534220486F7374204C62
:1070D0006962726172792076322E312E300D0A0D7E
:1070E0000A00000010B500240C48007810B10128F7
:1070F00010D106E00AA0FCF73FF90120074908700B
:1071000009E001F09FFD0446002414B1002003496A
:10711000087000E000BF00BF204610BD5C020020E8
:10712000BFAACABCD6B4D0D0D3C3BBA7B3CCD0F20D
:107130002121210D0A00000010B50446214602A0BD
:10714000FCF71AF910BD00004D616E75666163743D
:10715000757265723A2025730D0A000010B502A001
:10716000FCF70AF910BD0000B6CBBFDAB5E7C1F7EE
:10717000B9FDB4F32121210D0A00000010B5044629
:10718000214602A0FCF7F8F810BD000050726F64B1
:107190007563743A2025730D0A00000010B502A033
:1071A000FCF7EAF810BD0000B8B4CEBBC9E8B1B82E
:1071B0002E2E2E0D0A00000010B50446214602A016
:1071C000FCF7DAF810BD000053657269616C204E5F
:1071D000756D6265723A2025730D0A0010B502A024
:1071E000FCF7CAF810BD0000CEDEB7A8BBD6B8B415
:1071F000B5C4B4EDCEF32121210D0A0D0A00000023
:1072000010B502A0FCF7B8F8012010BDCCF8B9FD0C
:10721000D3C3BBA7C8B7C8CFB2BDD6E8210D0A00FB
:107220007047704738B5044643208DF800000020B1
:107230008DF8010003208DF8020001208DF8030075
:107240006846FCF733FE38BD38B504460020FCF72D
:107250008DFF01210803FCF773FE01210420FCF7D8
:107260009FFE4FF4C050ADF8000018208DF80300C9
:1072700003208DF8020069460148FCF7C4FC38BDC4
:107280000008014010B50446A0B202F035F910BD67
:1072900010B50446204602F055F910BD3EB504462F
:1072A00000250020029001900090207A01283DD115
:1072B000E068806B0190019820F480300190607A42
:1072C00028B1019820F4801000F5801001900198F9
:1072D000E168886300200290E068C068029002982C
:1072E00020F040000290029820F480000290029862
:1072F00020F400300290029820F4002002900298BE
:10730000E168C860204600F0C7F8E078012843D162
:10731000009820F01E000A300090009820F0200015
:10732000203000900098E168886035E0E068C0682F
:107330000290029820F04000403002900298E168EC
:10734000C860204600F0A8F800200190019820F4C1
:10735000803000F580300190019820F4802000F505
:1073600080200190019820F4002000F50020019079
:10737000019820F4001000F500100190607A28B107
:10738000019820F4801000F5801001900198E168C8
:1073900088631420FFF776FFE07801280FD1E068BA
:1073A00080680090009820F01E000A30009000983D
:1073B00020F02000203000900098E1688860284686
:1073C0003EBDFEB504460026002500200290019037
:1073D00000902046FFF724FF0021D4F80C01016043
:1073E000207A012803D1204600F021FC03E001218E
:1073F000204600F01CFC204600F06FFC606900682D
:107400000090009820F004000090009960690160ED
:10741000E07A01281DD18020E168486202986FF36C
:107420000F0080300290029880B200F5C0000290F8
:107430000298E168886201986FF30F00E0300190D4
:10744000019880B200F5C00001900198E168C1F890
:1074500000011021204600F029F9204600F000F933
:1074600000250DE04FF0FF3104F1900050F82500A9
:107470008160002104F1900050F82500C1606D1C6E
:107480002078A842EED80121204600F04EF8204690
:1074900000F0A4F83046FEBDF8B5044600260025ED
:1074A0000020009000BF0320FFF7F2FEE0680069B3
:1074B0000090681C05461349884201D90020F8BD98
:1074C0000098C00F0028EED00025009820F00100A1
:1074D000401C00900098E168086100BFE068006906
:1074E0000090681C05460749884200D904E00098CE
:1074F00000F001000028F1D100BF0320FFF7C8FE13
:107500003046DCE7400D030008B5014600200022AC
:107510000092009A22F00102521C0092CA689268FE
:10752000009B9A43CB689A6008BD38B505460C4667
:107530000020009021462846FFF773FE284600F001
:107540009CFB00900098C0F3003058B9012C09D181
:10755000009820F4805000F5805000900099D5F8F4
:10756000CC0001600098C0F3003040B13CB90098F5
:1075700020F4805000900099D5F8CC000160C8201C
:10758000FFF780FE38BD08B500210091491EC26892
:1075900051606FF08041C2685161009921F0004153
:1075A00001F100410091009921F4006101F50061B1
:1075B00000910099C268916108BD08B5014600209C
:1075C00000220092009A22F00102521C0092CA6826
:1075D0009268009B1A43CB689A6008BD38B5044690
:1075E000002500200090E1688861401EE168486144
:1075F0002046FFF7C8FFE07820B9009820F010007F
:1076000010300090009820F4001000F50010009059
:10761000009820F0007000F100700090009820F0B9
:10762000807000F180700090E06880690099884364
:107630000843E168886100200090009820F0005025
:1076400000F100500090009820F0080008300090F1
:10765000E068806900998843E1688861284638BD00
:10766000F8B504460025002600200090009820F080
:107670001000103000900098E168086100BFE068D9
:1076800000690090701C06460749884200D904E052
:107690000098C0F300100028F1D100BF0320FFF7CD
:1076A000F7FD2846F8BD0000400D0300F8B504467C
:1076B0000D460026002700200090009820F02000B2
:1076C00020300090009865F38A1000900098E168DF
:1076D000086100BFE06800690090781C0746074910
:1076E000884200D904E00098C0F340100028F1D18E
:1076F00000BF0320FFF7CCFD3046F8BD400D03006E
:107700000146C868406900F0010070471CB5024698
:10771000002000230093009B23F0004303F100436B
:1077200000930124009B64F3DC43009302F1900377
:1077300053F82130009C1C6102F1900353F8213072
:107740001B680193019B23F0004303F10043019365
:10775000019B23F08043019302F1900353F8213001
:10776000019C1C601CBD10B586B0024600200023A1
:107770000393019302F1900353F821301B680093A7
:10778000009B23F0804303F180430093009BC3F3ED
:10779000814323B1009BC3F38143022B11D1D368F2
:1077A000DB6A0393039BC3F30743DBB9009B23F01E
:1077B0000043009302F1900353F82130009C1C60B9
:1077C00010E053691B690193019BC3F307434BB955
:1077D000009B23F00043009302F1900353F8213003
:1077E000009C1C60009B23F0004303F100430093C6
:1077F00002F1900353F82130009C1C6006B010BDCC
:107800003FB5024600200023002402940394019413
:10781000441E009402F1900454F82140009DA5609C
:1078200000240394D478012C04D1039C24F0040494
:10783000241D039402F56C7404EB4114647934B193
:10784000012C6AD0022C03D0032C38D138E000BFC1
:10785000039C24F00104641C0394039C24F008049A
:1078600008340394039C24F0800480340394039C24
:1078700024F4806404F580640394039C24F01004D1
:107880001034039402F56C7404EB4114A47834B101
:10789000039C24F4807404F5807403940FE0039C2B
:1078A00024F040044034039402F56C7404EB41145A
:1078B000247924B1039C24F02004203403944EE066
:1078C000039C24F00104641C0394039C24F0100422
:1078D00010340394039C24F0080408340394039C9C
:1078E00024F0800480340394039C24F4806404F521
:1078F00080640394039C24F4007404F500740394DE
:1079000002F56C7404EB4114A4782CB1039C24F4AC
:10791000807404F58074039421E0039C24F0010436
:10792000641C0394039C24F4007404F50074039411
:10793000039C24F020042034039402F56C7404EBBF
:107940004114A47854B1039C24F08004803403943F
:10795000039C24F4807404F58074039400BF00BF7A
:1079600002F1900454F82140039DE560012404FADB
:1079700001F35469A4691C435569AC61029C24F06D
:10798000007404F100740294D468A469029D2C432D
:10799000D568AC610024019402F56C7404EB4114C9
:1079A0002578019C65F39C54019402F56C7404EBFA
:1079B00041146578019C65F3CE24019402F56C7442
:1079C00004EB4114A578019C65F3CF34019402F5D2
:1079D0006C7404EB4114E478022C01D1012500E021
:1079E0000025019C65F35144019402F56C7404EB8D
:1079F00041146579019C65F39344019402F56C741C
:107A000004EB4114E588019C65F30A04019402F536
:107A10006C7404EB41146479032C05D1019C24F0AF
